:020000040800F2
:1000000028090020CD010008CD130008DD0F0008ED
:10001000C9130008E50300087D2500080000000062
:10002000000000000000000000000000851800082B
:100030000D0E000800000000051600083921000818
:10004000E7010008E7010008E7010008E7010008F0
:10005000E7010008E7010008E7010008E7010008E0
:10006000E7010008E7010008E7010008E7010008D0
:10007000E7010008E7010008E7010008E7010008C0
:10008000E7010008E7010008E7010008E7010008B0
:1000900051250008E7010008E7010008E701000812
:1000A000E7010008E7010008E7010008E701000890
:1000B000E7010008E7010008E7010008E701000880
:1000C000E7010008E7010008E7010008E701000870
:1000D000E70100089D210008E7010008E70100088A
:1000E000E7010008E7010008BF23000800F002F85C
:1000F00000F05CF80AA090E8000C82448344AAF166
:100100000107DA4501D100F051F8AFF2090EBAE863
:100110000F0013F0010F18BFFB1A43F0010318473B
:10012000E8270000082800000A444FF0000C10F8EF
:10013000013B13F0070408BF10F8014B1D1108BF65
:1001400010F8015B641E05D010F8016B641E01F805
:10015000016BF9D113F0080F1EBF10F8014BAD1C55
:100160000C1B09D16D1E58BF01F801CBFAD505E073
:1001700014F8016B01F8016B6D1EF9D59142D6D3CD
:10018000704700000023002400250026103A28BFF5
:1001900078C1FBD8520728BF30C148BF0B607047F9
:1001A000002070471FB51FBD10B510BD00F0E8F866
:1001B0001146FFF7F7FF02F07DFA00F006F903B4ED
:1001C000FFF7F2FF03BC02F0F7F90000094880478F
:1001D00009480047FEE7FEE7FEE7FEE7FEE7FEE729
:1001E000FEE7FEE7FEE7FEE704480549054A064B41
:1001F000704700003D210008ED00000828030020A2
:10020000280900202805002028050020704700004C
:100210000FB4044910B503AA029800F05BF810BCB3
:100220005DF814FB280000202DE9F0410E4604463D
:10023000002020622046E168884730B3252805D099
:10024000D4E901219047206A401CF2E7E16820468A
:1002500000278847050018D0A5F14100192802D8C9
:1002600020354FF400673246294620462760FFF7C5
:1002700097FF40B1012804D0F61D26F00706083686
:10028000D8E7361DD6E72846DAE7206ABDE8F081D0
:10029000014A00F031B800005C010020704770474F
:1002A0007047704701694A1C02610878704700B5C1
:1002B0008FB0CDE901310021059105497944CDE99F
:1002C000031011466846FFF7AFFF0FB000BD0000F6
:1002D000E5FFFFFF074B70B50D467B44FFF7E7FFD7
:1002E0000446284600F02AF810B14FF0FF3070BDE8
:1002F000204670BDBB2300002DE9F04115460E4697
:10030000040002D12C6804B90BA4204600F02AF89E
:100310000444207870B127463146384600F012F880
:100320000444207810B1002004F8010B38462C60FA
:10033000BDE8F0810027F9E700000000007B00F035
:100340008000704730B503461D781DB10A4603E0B2
:10035000AC4201D1181A30BD12F8014B002CF7D174
:100360005B1CF1E730B503461D783DB10A4612F833
:10037000014B1CB1AC42FAD15B1CF5E7181A30BD39
:10038000754600F02BF8AE4605006946534620F04E
:100390000700854618B020B5FFF726FFBDE82040CE
:1003A0004FF000064FF000074FF000084FF0000B31
:1003B00021F00701AC46ACE8C009ACE8C009ACE8E4
:1003C000C009ACE8C0098D46704710B50446AFF3CC
:1003D00000802046BDE81040FFF7F1BE004870479E
:1003E000C402002000BFFEE70146CAB20B1243EA76
:1003F0000220704708B50020009022E1974800884D
:1004000000F00F00964908700846007800287CD15B
:1004100094480068944908800846008800F030003D
:10042000924908809048008800F440508E49088026
:100430008C4909684BF6BF7201EA020080F4005053
:1004400080F0200040F4004141F08001854A1160B5
:100450008248008800F0100090BB1046006848F603
:100460000F7108401146086000F0BAFD7D49096827
:100470004BF6BF7201EA02007B49098801F4805102
:1004800009B180F480507849098801F4005109B11C
:1004900080F400507549098801F0100109B180F01D
:1004A00010007249098801F0200109B180F0200094
:1004B00081B241F4004141F080016A4A116008BDF7
:1004C000FFE76848006880B20090BDF8000000F4C3
:1004D0000060B0B363480068C0F30E0048F68F7147
:1004E00008406049086001F059FB5E4909684BF615
:1004F000BF7201EA02005C49098801F4805109B128
:1005000080F480505849098800E056E001F4005119
:1005100009B180F400505549098801F0100109B172
:1005200080F010005149098801F0200109B180F0E4
:10053000200081B241F4004141F08001494A11603C
:10054000BDE7FFE7BDF8000000F40040002878D0C8
:1005500044480068C0F30E0048F68F7108404149D6
:10056000086001F013F83F4909684BF6BF7201EAD1
:1005700002003D49098801F4805109B180F480509E
:100580003949098801F4005109B180F40050374914
:10059000098801F0100109B180F010003349098881
:1005A00001F0200109B180F0200081B241F4004146
:1005B00041F080012B4A116081E7294800782C49DD
:1005C00001EB8000D0F8000C80B20090BDF8000074
:1005D00000F40040C0B12248007801EB8000D0F860
:1005E000000CC0F30E0048F68F7108401C490978D2
:1005F0001F4A02EB8101C1F8000C19490978491E14
:100600001C4A52F821008047BDF8000000F080002D
:10061000B8B113480078164901EB8000D0F8000CFF
:1006200048F60F7108400E490978114A02EB810122
:10063000C1F8000C0A490978491E0F4A52F82100F6
:10064000804708484430006880B20449088000F4BC
:10065000004000287FF4D2AE00BF30E76C000020DD
:1006600038000020005C00404C0000204E000020BC
:10067000005000408C000020700000200B4A02EB6C
:100680008001D1F8001C01F4804171B102EB8001BE
:10069000D1F8001C48F68F7211404CF280021143D1
:1006A000024B03EB8002C2F8001C70470050004070
:1006B0000B4A02EB8001D1F8001C01F0400171B13E
:1006C00002EB8001D1F8001C48F68F72114048F20D
:1006D000C0021143024B03EB8002C2F8001C7047BA
:1006E00000500040084A02EB8001D1F8001C48F697
:1006F0008F62114048F280021143034B03EB8002EA
:10070000C2F8001C704700000050004070B504465D
:100710000025062C25D11F480068007800F07F00D6
:1007200001281ED11B4800684079022819DA1948AF
:1007300000688078222807D116480068407908B9F7
:10074000154D18E0154D16E01248006880782128F4
:1007500011D110480068407908B9114D0BE0114DD6
:1007600009E00C480068007800F07F00212802D1E1
:10077000032C00D10C4D0DB9022070BD0548006856
:10078000856100210348006841820020A8470020BD
:10079000F3E700003C0000202D080008FD070008DA
:1007A000D5070008E90700081108000810B504463D
:1007B0000249204601F01AFB10BD00000C01002088
:1007C00010B504460249204601F010FB10BD0000A0
:1007D0000401002010B504460249204601F006FB42
:1007E00010BD00002401002010B504460249204637
:1007F00001F0FCFA10BD00002C01002010B50446E9
:100800000249204601F0F2FA10BD00001C01002050
:10081000014629B90120034A12681082002070475E
:100820000148FCE73C000020A800002010B5044669
:100830000249204601F0DAFA10BD00001401002040
:1008400070B5054606480068C478042C01DD002018
:1008500070BD044800EBC401284601F0C7FAF7E771
:100860003C000020340100200246002901DD022066
:100870007047002A01DD0220FAE70020F8E70000B7
:1008800000B5024606480068007800F07F00212885
:1008900004D10B2A02D100F08DF800BD0220FCE744
:1008A0003C00002010B500203549096888723449A1
:1008B0000968C8723348C079314909684872002014
:1008C00000F0E2FF4FF40071002001F0D7F8102192
:1008D000002001F099F82021002001F005F86021A6
:1008E000002001F073F80020FFF7FCFE264890F886
:1008F0002C10002001F00AF8002001F04DF84FF410
:10090000C061012001F0BAF8A021012000F0ECFF45
:100910004021012000F0FAFF4FF44051012001F086
:100920001BF84FF4C061022001F0A8F84FF4907159
:10093000022001F04BF84021022001F057F820215D
:10094000022001F061F84FF4C061032001F096F835
:100950004FF4D071032001F039F80821032001F091
:1009600045F82021032001F04FF8012007490860D5
:10097000002000F091FF01200449086010BD000034
:100980003C0000202E280008B00000205401002068
:100990000348817A11B10521024A116070470000B5
:1009A00028020020540100200420014908607047FB
:1009B0005401002003480068C1780348016000200A
:1009C000704700003C000020A800002070477047DE
:1009D00010B500F0E9FA002005490968887200F0B6
:1009E00037FE01F0B9FD00200249086010BD00008B
:1009F0003C000020540100202DE9F0472848006801
:100A000000F110052E8826480068077AD6B9042F11
:100A100018D12448007801280FD10021224800680D
:100A200080B2801C214A42F81010302020490880F2
:100A300000BF00201B49087003E0072710201C4955
:100A4000088027E0AC88A64201D8042000E00220FC
:100A50000746B44200D93446A0B2A9688847804608
:100A6000002000F091FA8146A2B24946404601F0CA
:100A700087FDA1B2002000F0B9FF2888001B288064
:100A800068882044688030200949088000020949AC
:100A9000088000BF024909680F72BDE8F0870000B6
:100AA0003C00002034000020505C0040006000400A
:100AB0004E0000204C0000202DE9F041284800683D
:100AC00000F110042688A068C0B1BEB1A588B54267
:100AD00000D93546A8B2A168884707462088401B40
:100AE0002080608828446080002000F03DFA804625
:100AF000AAB24146384600F071FD00BF208850B1CF
:100B00004FF44050174908800021084600F06EFF5E
:100B10003020154908802088A188884204DB032002
:100B20000F490968087218E02088002804DD0520B4
:100B30000B490968087210E0208870B9062008493E
:100B40000968087200210948006880B2801C084AC0
:100B500042F81010302004490880BDE8F081000000
:100B60003C0000204C0000204E000020505C004063
:100B7000006000402DE9F84F9B4800684578002749
:100B8000BA46062D1BD198480068007800F07F0017
:100B9000002813D1944909688878012803D1934922
:100BA0000968CF690AE0022803D1904909680F6AF1
:100BB00004E0032802D18D4909684F6A94E0002DB2
:100BC00064D189480068408800285FD18648006861
:100BD000C08802285AD1844800680079002855D17D
:100BE00081480068007800F07F0028B97E480068DE
:100BF000808808B97E4F77E07B480068007800F075
:100C00007F00012810D17849096848797749096837
:100C10008A6900219047002866D173480068807A6D
:100C2000002861D0724F5FE06F480068007800F0E4
:100C30007F00022858D16C480068407900F00F0608
:100C400069480068407900F0700967480068407999
:100C500000F0800038B1674901EB8600D0F8000C45
:100C600000F0300806E0634901EB8600D0F8000C84
:100C700000F4405860480078B04235D9B9F1000F0F
:100C800032D1B8F1000F2FD0594F2DE0082D07D1E8
:100C900055480068007800F07F0028BB574F23E0DC
:100CA0000A2D21D150480068007800F07F0001280B
:100CB0001AD14D480068807AB0B14B48006840882E
:100CC00090B949480068007970B947480068C08801
:100CD000012809D1444909684879444909688A6961
:100CE0000021904700B9464F57B13F480068A0F82F
:100CF00012A03D48006887610020B84700240FE03B
:100D0000394A12685078394A12681169884704468E
:100D1000032C05D10920344909680872BDE8F88F11
:100D200031480068008A4FF6FF71884204D10920DB
:100D30002D4909680872F1E7022C03D02A4800689F
:100D4000008A20B90820284909680872E6E7264881
:100D50000068007800F08000E0B323480068C08895
:100D6000009021480068008A0099884204D91E49F1
:100D700000980968088223E01B480068008A1A4925
:100D80000968C98888421BDA17480068008A174931
:100D9000096891F82C10884203DA0020194908707C
:100DA0000EE011480068008A1049096891F82C107B
:100DB00090FBF1F201FB120010B9012011490870FB
:100DC0000A48006890F82C10074800688182FFF7F5
:100DD00013FE07E0FFE703200349096808720003D8
:100DE0000949088000BF99E73C000020400000202E
:100DF0003D1E000800500040AC000020C11D00084E
:100E0000111E0008340000204C000020704770477D
:100E100010B54022A021064800F0E0FB4FF44051FD
:100E2000012000F099FD01200249087010BD00006A
:100E3000440200205B010020704700000149086067
:100E4000704700001404014070472DE9F04102464C
:100E500000250026002000230024002791F803C06D
:100E60000CF00F0591F803C00CF0100CBCF1000F52
:100E700003D091F802C04CEA050591F800C0BCF11E
:100E8000000F31D0146800202BE04FF0010C0CFA59
:100E900000F3B1F800C00CEA03069E4220D18300A3
:100EA0004FF00F0C0CFA03F7BC4305FA03FC4CEAB5
:100EB000040491F803C0BCF1280F06D14FF0010CD7
:100EC0000CFA00FCC2F814C00AE091F803C0BCF1AF
:100ED000480F05D14FF0010C0CFA00FCC2F810C00D
:100EE000401C0828D1D31460B1F800C0BCF1FF0F3A
:100EF00034DD546800202EE000F1080C4FF00108AA
:100F000008FA0CF3B1F800C00CEA03069E4221D1A6
:100F100083004FF00F0C0CFA03F7BC4305FA03FCF7
:100F20004CEA040491F803C0BCF1280F05D100F18C
:100F3000080C08FA0CF8C2F8148091F803C0BCF150
:100F4000480F07D100F1080C4FF0010808FA0CF81F
:100F5000C2F81080401C0828CED35460BDE8F08150
:100F6000416170470161704701460548006880B2E1
:100F700000EBC100001D034A32F8100080B2704738
:100F8000505C00400060004001460548006880B2A7
:100F900000EBC100034A32F8100080B27047000035
:100FA000505C00400060004070B50A480468001DB5
:100FB0000568001D0668344454B1082206492046DD
:100FC00000F06EF8042204491031284600F068F859
:100FD00070BD0000E8F7FF1F5200002000BFFEE7D1
:100FE00010B518480068047A022C01D0042C05D1F1
:100FF000FFF702FD13480068047A1CE0062C19D1A3
:1010000010480068407805280ED10E480068007826
:1010100000F07F0040B90B490968C87800F03CFC3B
:1010200009490968086A804708490968886880474B
:10103000082400E00824034909680C7200F0E4FA6F
:1010400010BD00003C0000204800002040000020AF
:1010500010B501F0B3FA4FF4E13001F04BFB04A0FE
:10106000FFF7D6F801F0D2FB07A0FFF7D1F810BDCB
:1010700073657269616C20696E697420737563634E
:10108000657373200A00000073797374656D2069BD
:101090006E69742073756363657373200A000000C2
:1010A00030B50B46002100BF16E00A24B4EB107FD8
:1010B00005D9302404EB107403F8114005E04124F5
:1010C00004EB10740A3C03F81140000100254C00A9
:1010D000641C1D554C1CE1B29142E6DB30BD1CB5D1
:1010E0000446002000900190072C03D102208DF8C7
:1010F00000005AE1412C0ADB5A2C08DC02208DF852
:101100000000A4F13D00C0B28DF807004DE1612C54
:1011100007DB7A2C05DCA4F15D00C0B28DF8070076
:1011200043E1342C50D01BDCA4F109002B283ED223
:10113000DFE800F0938F3D3D3D3D3D3D3D3D3D3D74
:101140003D3D3D3D3D3D3D3D3D3D3D97DDBAF3FAE5
:10115000F0EF72EEEDECEB6286666A3A3E424600D4
:10116000402C71D00BDCA4F135000B28DFD2DFE876
:1011700000F02F33373B3F944F7C6C868D00602C02
:101180005AD008DCA4F15B000528D0D2DFE800F0DB
:1011900048504CDAFE007B2C6ED07C2C6DD07D2C20
:1011A0006CD07E2C03D19BE027208DF80700FBE05C
:1011B0001E208DF80700F7E01F208DF80700F3E0F0
:1011C00020208DF80700EFE021208DF80700EBE0EC
:1011D00022208DF80700E7E023208DF80700E3E0E8
:1011E00024208DF80700DFE025208DF80700DBE0E4
:1011F00026208DF80700D7E036208DF80700D3E0D1
:1012000037208DF80700CFE038208DF80700CBE0BD
:1012100033208DF80700C7E034208DF80700C3E0C5
:101220002F208DF80700BFE030208DF80700BBE0CD
:1012300031208DF80700B7E035208DF80700B3E0C6
:101240002D208DF80700AFE058E02E208DF8070024
:10125000AAE028208DF80700A6E02B208DF80700D3
:10126000A2E02C208DF807009EE002208DF80000FF
:1012700036208DF8070097E01DE02AE022E00220EA
:101280008DF8000037208DF807008DE002208DF8E2
:10129000000038208DF8070086E002208DF800005D
:1012A00033208DF807007FE002208DF80000342005
:1012B0008DF8070078E002208DF800002F208DF8CF
:1012C000070071E002208DF8000030208DF8070043
:1012D0006AE002208DF8000031208DF8070063E0FD
:1012E00002208DF8000035208DF807005CE0022018
:1012F0008DF800001E208DF8070055E002208DF8C3
:1013000000001F208DF807004EE046E028E036E0A0
:101310002EE01EE00FE007E0FFE702208DF800005E
:1013200020208DF807003FE002208DF800002120EA
:101330008DF8070038E002208DF8000022208DF89B
:10134000070031E002208DF8000023208DF807000F
:101350002AE002208DF8000024208DF8070023E009
:1013600002208DF8000025208DF807001CE00DE01C
:1013700002208DF8000026208DF8070014E00220DE
:101380008DF8000027208DF807000DE002208DF871
:1013900000002D208DF8070006E002208DF80000E7
:1013A0002E208DF8070000BF00BF14B900208DF873
:1013B000070008224FF4D071684601F0E1F80320DD
:1013C00000F042FB1CBD704700BFFEE7704770474E
:1013D00070B5002100230F22C47804B3154C246893
:1013E00004F4E064C4F5E064210AC1F10403CA40D6
:1013F000447804FA03F184781440214309010E4C27
:101400000678A155047804F01F050124AC40057846
:101410006D11AD0005F1E025C5F8004109E0047843
:1014200004F01F050124AC40044D0678761145F800
:10143000264070BD0CED00E000E400E080E100E03B
:1014400002490143024A1160704700000000FA059A
:101450000CED00E070B50226474800684478464825
:101460000068007800F07F00002844D1092C03D1E7
:1014700000F064FD06465FE0052C14D13E4800688C
:10148000C0787F280BDC3C480068807838B93A483F
:101490000068808818B938480068807A08B1082543
:1014A00065E0002648E0032C0ED133480068C07880
:1014B000012807D130480068808818B900F062FD23
:1014C000064639E0022637E0012C35D12A4800686B
:1014D000C07801280DD128480068808848B926487E
:1014E0000068407A00F0200018B100F0B3FB064617
:1014F00022E0022620E020480068007800F07F000B
:10150000012805D10B2C17D100F0B8FD064613E0D9
:1015100019480068007800F07F0002280BD1012CE8
:1015200003D100F097FB064606E0032C04D100F03F
:101530003DFD064600E002264EB1E0B20F4A1268B9
:10154000516988470646032E01D109250FE00EB1E7
:1015500008250CE0062500210948006880B2801C9F
:10156000084A42F8101030200749088000BF02499D
:1015700009680D7270BD00003C0000204000002092
:10158000505C0040006000404E00002010B5114843
:101590000068047A022C01D0042C01D1082412E046
:1015A000032C01D0052C05D1FFF786FA0948006805
:1015B000047A08E0072C05D107490968C868804704
:1015C000082400E00824034909680C7200F01CF8A4
:1015D00010BD00003C00002040000020F0B5561C6B
:1015E0007510074E06EB41042B4605E034F8047BEA
:1015F00020F8017B401C5B1E002BF7D1F0BD0000E2
:10160000006000407047000010B50D4890F82C10A5
:10161000002000F07BF90B480068007A082805D10B
:1016200040020949088010200849088005480068E0
:10163000007A092801D1012010BD0020FCE700003C
:10164000B00000203C0000204C0000204E00002094
:1016500010B5012000F0BAFE01240B480460002000
:101660000A49088008460088074908600020091DCB
:1016700008604FF4E0500549088008460088024998
:101680000860002010BD0000405C004046000020C3
:1016900029B1064AD2690243044BDA6104E0034AE5
:1016A000D2698243014BDA617047000000100240AA
:1016B00029B1064A92690243044B9A6104E0034A45
:1016C00092698243014B9A6170470000001002400A
:1016D00030B500210022002400232D4D6D6805F057
:1016E0000C0121B1042905D0082923D105E0294D99
:1016F000056022E0274D05601FE0254D6D6805F46B
:101700007012234D6D6805F48034022505EB92427A
:101710001CB9214D554305600BE01D4D6D6805F466
:1017200000351DB11C4D5543056002E0194D554370
:10173000056002E0174D056000BF00BF144D6D68E5
:1017400005F0F0010909154D6B5C0568DD40456049
:101750000F4D6D6805F4E061090A104D6B5C45683A
:10176000DD4085600A4D6D6805F46051C90A0B4D76
:101770006B5C4568DD40C560054D6D6805F4404112
:10178000890B074D6B5CC568B5FBF3F5056130BD92
:101790000010024000127A0000093D0014000020F1
:1017A000240000200149086070470000D800424230
:1017B00070B50546072D01D02748057026480078EA
:1017C000082841D2DFE800F0040A1016212E414219
:1017D00000F046F80620204908703BE000F040F891
:1017E00004201D49087035E002201B494870032081
:1017F00008702FE018484078401E17494870084686
:10180000407808B90420087024E01448006884B2C5
:1018100044F010041148046005200F4908700A20A4
:10182000487017E00C484078401E0B494870084645
:10183000407840B90948006884B224F01004074891
:1018400004600620087005E000BF00BF06200249C2
:10185000087000BF00BF70BD59010020405C00400F
:1018600010B50748006884B224F0040404480460FA
:10187000FFF7A9FD4FF43F400149086010BD00008B
:10188000405C0040704700004FF6F8710140014A8B
:1018900011607047505C004030B501460F4B1A781C
:1018A000002014E003060E4C04EB9353D3F8003CE5
:1018B00048F68F74234048F280042343C4B2234384
:1018C0000406074D05EB9454C4F8003C401C9042BC
:1018D000E8D341F08003034C236030BDAC0000200E
:1018E000005000404C5C004010B54A105300054ABF
:1018F000126892B202EBC002121D034C44F812307F
:1019000010BD0000505C00400060004010B5024671
:101910000F48006880B200EBC200801D0D4C04EB44
:1019200040033E290BDD481101F01F040CB9441E91
:10193000A0B24FF4004444EA80241C6007E0481041
:1019400001F001040CB1441CA0B284021C6010BD63
:10195000505C00400060004030B50E4C04EB80034A
:10196000D3F8003C4BF68F7403EA040201F4805371
:101970000BB182F4805201F400530BB182F4005297
:1019800042F4004343F08003024D05EB8004C4F8A9
:10199000003C30BD0050004010B50B4B03EB800203
:1019A000D2F8002C4BF68F7302EA030181F48051C8
:1019B00081F4005141F4004242F08002024C04EBF9
:1019C0008003C3F8002C10BD0050004010B54A1031
:1019D0005200044B1B689BB203EBC003024C44F85B
:1019E000132010BD505C004000600040044A1268A3
:1019F00092B202EBC002921C024B43F812107047E5
:101A0000505C00400060004030B50E4C04EB800399
:101A1000D3F8003C48F6BF7403EA040201F0100357
:101A20000BB182F0100201F020030BB182F0200212
:101A300042F4004343F08003024D05EB8004C4F8F8
:101A4000003C30BD0050004010B50B4B03EB800252
:101A5000D2F8002C48F6BF7302EA030181F01001AE
:101A600081F0200141F4004242F08002024C04EB7C
:101A70008003C3F8002C10BD0050004010B5074B88
:101A800003EB8002D2F8002C48F68F131A400A4369
:101A9000024C04EB8003C3F8002C10BD0050004042
:101AA00010B500F001F810BD0CB5002001900090B9
:101AB0003348006840F480303149086000BF304846
:101AC000006800F4003000900198401C01900098DC
:101AD00018B90198B0F5A06FF1D12948006800F459
:101AE000003010B10120009001E00020009000982B
:101AF000012843D12348006840F0100021490860C4
:101B00000846006820F0030008600846006840F0BE
:101B1000020008601A484068194948600846406851
:101B200048600846406840F4806048600846406865
:101B300020F47C1048600846406840F4E810486093
:101B40000846006840F08070086000BF0C480068DC
:101B500000F000700028F9D00948406820F0030028
:101B6000074948600846406840F00200486000BFEE
:101B70000348406800F00C000828F9D10CBD0000B3
:101B8000001002400020024010B50020FFF70AFEBE
:101B90000121C805FFF77CFD10BD000038B5012408
:101BA0002948006880B2001D284931F8100080B231
:101BB00001EB4000009026480068007A092832D0E6
:101BC000009800782249096808700098401C00902D
:101BD000009800781E49096848700098401C0090E1
:101BE000009800EB44000090009931F8020B00913E
:101BF000FEF7FAFB164909684880009800EB44009C
:101C00000090009931F8020B0091FEF7EDFB1049AE
:101C100009688880009800EB4400009000980088D4
:101C20000B490968C88001200949096808720848F9
:101C30000068C08810B9FFF70DFC01E0FEF79AFFBD
:101C4000FFF7E2FC38BD0000505C0040006000403F
:101C50003C0000202DE9F04754480068007800F06F
:101C60007F08B8F1000F0AD150480068407A00F0B0
:101C7000DF004E49096848720020BDE8F087B8F1DE
:101C8000020F7CD149480068408818B9474800686D
:101C9000007908B10220F0E7DFF8149143480068AA
:101CA000477927F080052C4640480068407900F0CD
:101CB000800038B13F4901EB8400D0F8000C00F0FF
:101CC000300606E03B4901EB8400D0F8000C00F43C
:101CD000405699F80000A84204D91EB13348006864
:101CE000807A08B90220C8E707F0800080B1314946
:101CF00001EB8400D0F8000C00F0300010284BD12C
:101D0000E0B2FEF7D5FCE0B23021FFF77DFE43E004
:101D1000284901EB8400D0F8000C00F44050B0F5E5
:101D2000805F39D1E4B9244A92F82C10E0B2FFF771
:101D3000EDFD204A02EB8401D1F8001C4BF68F72B6
:101D400001EA020080F4805080F4005040F4004129
:101D500041F08001174B03EB8402C2F8001C1BE02A
:101D6000E0B2FEF78BFC134A02EB8401D1F8001CB1
:101D70004BF68F7201EA020080F4805000E011E01F
:101D800080F4005040F4004141F08001094B03EB26
:101D90008402C2F8001C00BF0849096848698047EE
:101DA00000206AE700BF022067E700003C00002037
:101DB000AC00002000500040B0000020480000208F
:101DC00010B504462CB90120064909680882002094
:101DD00010BD0549096808688047024800680A3054
:101DE000F6E700003C0000204800002010B5024645
:101DF00006480068438A32B98888C01A034C2468B0
:101E00002082002010BD08681844FBE73C00002039
:101E100010B504462CB90120064909680882002043
:101E200010BD0549096888688047024800680C3081
:101E3000F6E700003C0000204800002010B50446F2
:101E40002CB90220394909680882002010BD002001
:101E50003749088035480068007800F07F0018BBDB
:101E600032490968487A00F0200131B130490978D7
:101E700041F002012E4A117005E02D49097801F068
:101E8000FD012B4A117000F0400131B12849097859
:101E900041F00101264A117005E02549097801F059
:101EA000FE01234A11703AE020480068007800F0F3
:101EB0007F00012801D11E48C8E71C48006800784F
:101EC00000F07F00022828D1184A1268517901F0E9
:101ED0000F0001F080027AB1164B03EB8002D2F8BA
:101EE000002C02F03002102A16D1114A127842F06A
:101EF00001020F4B1A700FE00E4B03EB8002D2F879
:101F0000002C02F44052B2F5805F05D1084A1278E5
:101F100042F00102064B1A7001E0002096E70649E4
:101F2000096808698047024890E700003C000020EB
:101F300032000020005000404800002010B50E483C
:101F40000068C0780D494978884213DC0A48006867
:101F5000807878B908480068808858B906480068D1
:101F6000C07805490968887205490968486880474A
:101F7000002010BD0220FCE73C000020AC00002047
:101F80004800002010B507480068407A40F0200063
:101F900004490968487204490968C86980470020F3
:101FA00010BD00003C000020480000202DE9F04159
:101FB0002E480068467926F080073C462B4800688A
:101FC000407900F0800038B1294901EB8400D0F855
:101FD000000C00F0300506E0254901EB8400D0F844
:101FE000000C00F4405523480078A04208D91F484F
:101FF0000068408820B91DB11C480068807A10B97B
:102000000220BDE8F08106F08000A0B1184A02EB82
:102010008401D1F8001C48F6BF7201EA020080F08A
:10202000100040F4004141F08001114B03EB8402A9
:10203000C2F8001C14E00E4A02EB8401D1F8001C27
:102040004BF68F7201EA020080F4805040F40041A8
:1020500041F08001064B03EB8402C2F8001C00BF74
:1020600005490968886980470020CAE73C000020CC
:1020700000500040AC0000204800002010B5174B75
:102080001B68D978154B1B685879154B1B689A69E2
:102090009047044611480068807AE8B13CB90F487F
:1020A0000068007918B90D480068807808B10220EE
:1020B00010BD8CB90B490968C8688047074800689B
:1020C000407906490968C87204480068C078034925
:1020D000096808730020EBE70220E9E73C000020D4
:1020E000400000204800002010B50848006884B275
:1020F00044F0080405480460006884B244F0040415
:1021000002480460FEF7A0FE10BD0000405C0040E5
:10211000042808D14FF0E021096941F004014FF093
:10212000E022116107E04FF0E021096921F004018C
:102130004FF0E022116170477047000010B513485E
:10214000006840F0010011490860084640681049E5
:1021500008400E494860084600680E4908400B498F
:1021600008600846006820F480200860084640683F
:1021700020F4FE0048604FF41F008860FFF790FCD9
:102180004FF000600449086010BD000000100240DC
:102190000000FFF8FFFFF6FE08ED00E010B540F28A
:1021A00025511D4800F04AF810B31B4800F002F911
:1021B000C4B21A48008800F40040C8B91748008823
:1021C00000F4804060B10A2C03D00020134908803D
:1021D00020E01248008840F400401049088019E0CF
:1021E0000D2C06D10D48008840F480400B49088032
:1021F00010E00A480088C0F30D0009490C54074854
:102200000088401C0549088008460088C72801DD71
:102210000020088010BD0000003801402C00002084
:102220006001002021B1828942F40052828104E0E1
:1022300082894DF6FF731A408281704770B502465D
:10224000002400230025002040F66A16B14200D188
:1022500000BFC1F3421501F01F03012606FA03F384
:10226000012D02D19689334006E0022D02D1168A53
:10227000334001E0968A33400C12012606FA04F43A
:102280001688344013B10CB1012000E0002070BD6D
:10229000F0B50346002400260025002040F66A170A
:1022A000B94200D100BF1846C1F3421401F01F0625
:1022B000012707FA06F5012C01D10C3004E0022CAD
:1022C00001D1103000E014301AB107682F430760C5
:1022D00002E00768AF430760F0BD00002DE9F0475A
:1022E00086B005460E460024A24600BFA146002740
:1022F000B08900B100BF2F462C8A4CF6FF70044015
:10230000F08804432C82AC894EF6F3100440B08868
:1023100031890843718908430443AC81AC8A4FF684
:10232000FF400440B0890443AC8201A8FFF7D0F914
:102330001F48874202D1DDF810A001E0DDF80CA0B3
:10234000A88900F4004040B10AEBCA0000EB0A1073
:1023500031684900B0FBF1F807E00AEBCA0000EB76
:102360000A1031688900B0FBF1F86420B8FBF0F086
:1023700004012009642101FB1089A88900F40040B0
:1023800040B1322000EBC900B0FBF1F000F00700D3
:10239000044308E0322000EB09106421B0FBF1F0A7
:1023A00000F00F0004432C8106B0BDE8F087000068
:1023B0000038014001468888C0F30800704710B516
:1023C0004FF48020FEF73AFD10BD000010B5044622
:1023D0002CB14FF480510548FEF7C2FD04E04FF4E4
:1023E00080510248FEF7BEFD10BD0000000801400C
:1023F00010B50848084908600220096808720748B3
:1024000007490860074808490860054909680868DD
:10241000804710BD280200203C000020B0000020B2
:1024200040000020E00000204800002008B54FF4E4
:102430004070FFF705F814208DF8000001208DF89A
:10244000010000208DF8020001208DF8030068468D
:10245000FEF7BEFF08BD000010B5374800683749D9
:1024600008800846008800F4004035490988084083
:1024700008B1FDF7BFFF3148008800F480603049A3
:102480000988084030B14FF6FF302B4908602D49CC
:10249000486880472948008800F400502849098886
:1024A000084018B14DF6FF702349086023480088A2
:1024B00000F4805022490988084030B14EF6FF7080
:1024C0001D4908600020FFF773F91C48008800F4DC
:1024D00000601B490988084060B11B48007810B1B2
:1024E000FFF702FE02E00220FFF762F94FF2FF70F1
:1024F000114908601148008800F4007010490988EB
:10250000084040B14FF6FF500B4908600F48007873
:10251000401C0E4908700948008800F48070084982
:102520000988084030B14FF6FF6003490860072072
:10253000FFF73EF910BD0000445C00406C00002035
:1025400046000020B0000020580100206E0000204E
:1025500010B5FFF781FF10BD0020064908604FF459
:102560003F4005490880084600880249091F086065
:1025700000207047445C00404600002000BFFEE79A
:10258000F0B5144604F1010C4FEA6C07DFF824C0E3
:102590000CEB41033D460AE00678401C90F800C071
:1025A00046EA0C2223F8022B9B1C401C6D1E002DBA
:1025B000F2D1F0BD0060004000BF704710B56FF071
:1025C0000400FFF7A5FD0A4800680A49B0FBF1F0D6
:1025D000094908700846007800EB4001C1EBC010C3
:1025E0004FF6FF7101EAC0000449088010BD0000E9
:1025F0000000002000127A002E0000203000002091
:102600000146114A12884A434FF0E0235A610022E2
:102610009A611A46126942F001021A6100BF4FF036
:10262000E022106900F001021AB100F48032002AA1
:10263000F5D04FF0E022126922F001024FF0E023C2
:102640001A6100229A617047300000200146114A49
:1026500012784A434FF0E0235A6100229A611A46E9
:10266000126942F001021A6100BF4FF0E0221069C6
:1026700000F001021AB100F48032002AF5D04FF0C8
:10268000E022126922F001024FF0E0231A610022D9
:102690009A6170472E00002000BF054A128802F0A0
:1026A0004002002AF9D0C2B2014B1B1D1A807047AC
:1026B00000380140FEF7CCFC09E04FF47A70FFF7D8
:1026C0009FFF03A0FDF7A4FD06A000F063F8F4E768
:1026D0007374617274207573622073656E64200A6E
:1026E0000000000074657374207869616F6C616923
:1026F000200A000010B586B00446012144F204000F
:10270000FEF7D6FF4FF40070ADF8140003208DF8EB
:10271000160018208DF8170005A91C48FEF795FB38
:102720004FF48060ADF8140004208DF8170005A95F
:102730001648FEF78AFB25208DF8000003208DF84F
:1027400001008DF8020001208DF803006846FEF7B5
:102750003FFE01940020ADF80800ADF80A00ADF886
:102760000C00ADF810000C20ADF80E0001A90848CF
:10277000FFF7B4FD012240F225510548FFF788FD1F
:1027800001210348FFF74EFD06B010BD00080140CF
:10279000003801402DE9F04105461420FFF730FFD5
:1027A0002C462CE018A12046FDF772FD07463E7826
:1027B0003046FEF794FC4FF47A70FFF747FF4FF472
:1027C0009670FFF743FF4FF4FA70FFF73FFF4FF4A7
:1027D000FA70FFF73BFF0020FEF781FC4FF47A70A0
:1027E000FFF734FF4FF49670FFF730FF4FF4FA70A5
:1027F000FFF72CFF4FF4FA70FFF728FF641C2078D6
:102800000028CFD1BDE8F0810000000010B5FFF72F
:102810000DFEFFF7B9F9FFF7EBFD10BD1201000245
:102820000000004083045057000201020301090226
:102830004900020100C096090400000203000000E4
:102840000921100100012221000705820340000236
:102850000705010340000209040100020301010011
:10286000092110011901223D0007058303400001E1
:1028700007050303400001058C0901A101090315A7
:10288000002600FF75089540810209041500260006
:10289000FF750895409102C005010906A1010507D1
:1028A00019E029E7150025019508750181029501B8
:1028B000750881039506750825FF190029658100B3
:1028C000250195027501050819012902910295015A
:1028D00075069103C00403090414034D00790055E3
:1028E00000530042005F00480049004400180342C2
:1028F0000079002000760069006500770074006FA1
:10290000006F006C00000000282900080000002073
:102910006001000028010008C429000860010020AF
:10292000C8070000840100081184A24A0468090154
:10293000020304060708090C6910052802040608AA
:10294000141A0378A9020110130F0E1B0839040B87
:1029500010CF13040A15111829044123040113D1BF
:10296000091408A5081B08CD081ACF04130D071B6E
:102970000881101A69041AC10C1AAD041A410C41DD
:102980003240293C2A912C0915581AA91C131C28DD
:102990003308121A2E0832491A770832211A980879
:1029A0002A3D48190832095A60081AD50832041A13
:1029B000D90832141AED083218225073201A19ABB4
:0429C00051000000C2
:04000005080000ED02
:00000001FF
